{
  "contractName": "NFTMarket",
  "abi": [
    {
      "inputs": [],
      "stateMutability": "nonpayable",
      "type": "constructor"
    },
    {
      "anonymous": false,
      "inputs": [
        {
          "indexed": true,
          "internalType": "address",
          "name": "owner",
          "type": "address"
        },
        {
          "indexed": true,
          "internalType": "address",
          "name": "approved",
          "type": "address"
        },
        {
          "indexed": true,
          "internalType": "uint256",
          "name": "tokenId",
          "type": "uint256"
        }
      ],
      "name": "Approval",
      "type": "event"
    },
    {
      "anonymous": false,
      "inputs": [
        {
          "indexed": true,
          "internalType": "address",
          "name": "owner",
          "type": "address"
        },
        {
          "indexed": true,
          "internalType": "address",
          "name": "operator",
          "type": "address"
        },
        {
          "indexed": false,
          "internalType": "bool",
          "name": "approved",
          "type": "bool"
        }
      ],
      "name": "ApprovalForAll",
      "type": "event"
    },
    {
      "anonymous": false,
      "inputs": [
        {
          "indexed": false,
          "internalType": "uint256",
          "name": "tokenId",
          "type": "uint256"
        },
        {
          "indexed": false,
          "internalType": "address",
          "name": "creator",
          "type": "address"
        },
        {
          "indexed": false,
          "internalType": "bool",
          "name": "isListed",
          "type": "bool"
        }
      ],
      "name": "AssetRegistered",
      "type": "event"
    },
    {
      "anonymous": false,
      "inputs": [
        {
          "indexed": true,
          "internalType": "address",
          "name": "from",
          "type": "address"
        },
        {
          "indexed": true,
          "internalType": "address",
          "name": "to",
          "type": "address"
        },
        {
          "indexed": true,
          "internalType": "uint256",
          "name": "tokenId",
          "type": "uint256"
        }
      ],
      "name": "Transfer",
      "type": "event"
    },
    {
      "inputs": [
        {
          "internalType": "address",
          "name": "to",
          "type": "address"
        },
        {
          "internalType": "uint256",
          "name": "tokenId",
          "type": "uint256"
        }
      ],
      "name": "approve",
      "outputs": [],
      "stateMutability": "nonpayable",
      "type": "function"
    },
    {
      "inputs": [
        {
          "internalType": "address",
          "name": "owner",
          "type": "address"
        }
      ],
      "name": "balanceOf",
      "outputs": [
        {
          "internalType": "uint256",
          "name": "",
          "type": "uint256"
        }
      ],
      "stateMutability": "view",
      "type": "function",
      "constant": true
    },
    {
      "inputs": [
        {
          "internalType": "uint256",
          "name": "tokenId",
          "type": "uint256"
        }
      ],
      "name": "getApproved",
      "outputs": [
        {
          "internalType": "address",
          "name": "",
          "type": "address"
        }
      ],
      "stateMutability": "view",
      "type": "function",
      "constant": true
    },
    {
      "inputs": [
        {
          "internalType": "address",
          "name": "owner",
          "type": "address"
        },
        {
          "internalType": "address",
          "name": "operator",
          "type": "address"
        }
      ],
      "name": "isApprovedForAll",
      "outputs": [
        {
          "internalType": "bool",
          "name": "",
          "type": "bool"
        }
      ],
      "stateMutability": "view",
      "type": "function",
      "constant": true
    },
    {
      "inputs": [],
      "name": "listingPrice",
      "outputs": [
        {
          "internalType": "uint256",
          "name": "",
          "type": "uint256"
        }
      ],
      "stateMutability": "view",
      "type": "function",
      "constant": true
    },
    {
      "inputs": [],
      "name": "name",
      "outputs": [
        {
          "internalType": "string",
          "name": "",
          "type": "string"
        }
      ],
      "stateMutability": "view",
      "type": "function",
      "constant": true
    },
    {
      "inputs": [
        {
          "internalType": "uint256",
          "name": "tokenId",
          "type": "uint256"
        }
      ],
      "name": "ownerOf",
      "outputs": [
        {
          "internalType": "address",
          "name": "",
          "type": "address"
        }
      ],
      "stateMutability": "view",
      "type": "function",
      "constant": true
    },
    {
      "inputs": [
        {
          "internalType": "address",
          "name": "from",
          "type": "address"
        },
        {
          "internalType": "address",
          "name": "to",
          "type": "address"
        },
        {
          "internalType": "uint256",
          "name": "tokenId",
          "type": "uint256"
        }
      ],
      "name": "safeTransferFrom",
      "outputs": [],
      "stateMutability": "nonpayable",
      "type": "function"
    },
    {
      "inputs": [
        {
          "internalType": "address",
          "name": "from",
          "type": "address"
        },
        {
          "internalType": "address",
          "name": "to",
          "type": "address"
        },
        {
          "internalType": "uint256",
          "name": "tokenId",
          "type": "uint256"
        },
        {
          "internalType": "bytes",
          "name": "data",
          "type": "bytes"
        }
      ],
      "name": "safeTransferFrom",
      "outputs": [],
      "stateMutability": "nonpayable",
      "type": "function"
    },
    {
      "inputs": [
        {
          "internalType": "address",
          "name": "operator",
          "type": "address"
        },
        {
          "internalType": "bool",
          "name": "approved",
          "type": "bool"
        }
      ],
      "name": "setApprovalForAll",
      "outputs": [],
      "stateMutability": "nonpayable",
      "type": "function"
    },
    {
      "inputs": [
        {
          "internalType": "bytes4",
          "name": "interfaceId",
          "type": "bytes4"
        }
      ],
      "name": "supportsInterface",
      "outputs": [
        {
          "internalType": "bool",
          "name": "",
          "type": "bool"
        }
      ],
      "stateMutability": "view",
      "type": "function",
      "constant": true
    },
    {
      "inputs": [],
      "name": "symbol",
      "outputs": [
        {
          "internalType": "string",
          "name": "",
          "type": "string"
        }
      ],
      "stateMutability": "view",
      "type": "function",
      "constant": true
    },
    {
      "inputs": [
        {
          "internalType": "uint256",
          "name": "tokenId",
          "type": "uint256"
        }
      ],
      "name": "tokenURI",
      "outputs": [
        {
          "internalType": "string",
          "name": "",
          "type": "string"
        }
      ],
      "stateMutability": "view",
      "type": "function",
      "constant": true
    },
    {
      "inputs": [
        {
          "internalType": "address",
          "name": "from",
          "type": "address"
        },
        {
          "internalType": "address",
          "name": "to",
          "type": "address"
        },
        {
          "internalType": "uint256",
          "name": "tokenId",
          "type": "uint256"
        }
      ],
      "name": "transferFrom",
      "outputs": [],
      "stateMutability": "nonpayable",
      "type": "function"
    },
    {
      "inputs": [
        {
          "internalType": "string",
          "name": "tokenURI",
          "type": "string"
        },
        {
          "internalType": "uint256",
          "name": "price",
          "type": "uint256"
        }
      ],
      "name": "mintToken",
      "outputs": [
        {
          "internalType": "uint256",
          "name": "",
          "type": "uint256"
        }
      ],
      "stateMutability": "payable",
      "type": "function",
      "payable": true
    },
    {
      "inputs": [
        {
          "internalType": "uint256",
          "name": "tokenId",
          "type": "uint256"
        }
      ],
      "name": "burnToken",
      "outputs": [],
      "stateMutability": "nonpayable",
      "type": "function"
    },
    {
      "inputs": [
        {
          "internalType": "uint256",
          "name": "tokenId",
          "type": "uint256"
        }
      ],
      "name": "getAsset",
      "outputs": [
        {
          "components": [
            {
              "internalType": "uint256",
              "name": "tokenId",
              "type": "uint256"
            },
            {
              "internalType": "uint256",
              "name": "price",
              "type": "uint256"
            },
            {
              "internalType": "address",
              "name": "creator",
              "type": "address"
            },
            {
              "internalType": "bool",
              "name": "isListed",
              "type": "bool"
            }
          ],
          "internalType": "struct NFTMarket.Asset",
          "name": "",
          "type": "tuple"
        }
      ],
      "stateMutability": "view",
      "type": "function",
      "constant": true
    },
    {
      "inputs": [],
      "name": "listedItemsCount",
      "outputs": [
        {
          "internalType": "uint256",
          "name": "",
          "type": "uint256"
        }
      ],
      "stateMutability": "view",
      "type": "function",
      "constant": true
    },
    {
      "inputs": [],
      "name": "totalSupply",
      "outputs": [
        {
          "internalType": "uint256",
          "name": "",
          "type": "uint256"
        }
      ],
      "stateMutability": "view",
      "type": "function",
      "constant": true
    },
    {
      "inputs": [
        {
          "internalType": "uint256",
          "name": "index",
          "type": "uint256"
        }
      ],
      "name": "tokenByIndex",
      "outputs": [
        {
          "internalType": "uint256",
          "name": "",
          "type": "uint256"
        }
      ],
      "stateMutability": "view",
      "type": "function",
      "constant": true
    },
    {
      "inputs": [
        {
          "internalType": "address",
          "name": "owner",
          "type": "address"
        },
        {
          "internalType": "uint256",
          "name": "index",
          "type": "uint256"
        }
      ],
      "name": "tokenOfOwnerByIndex",
      "outputs": [
        {
          "internalType": "uint256",
          "name": "",
          "type": "uint256"
        }
      ],
      "stateMutability": "view",
      "type": "function",
      "constant": true
    },
    {
      "inputs": [],
      "name": "getAllAssetsOnSale",
      "outputs": [
        {
          "components": [
            {
              "internalType": "uint256",
              "name": "tokenId",
              "type": "uint256"
            },
            {
              "internalType": "uint256",
              "name": "price",
              "type": "uint256"
            },
            {
              "internalType": "address",
              "name": "creator",
              "type": "address"
            },
            {
              "internalType": "bool",
              "name": "isListed",
              "type": "bool"
            }
          ],
          "internalType": "struct NFTMarket.Asset[]",
          "name": "",
          "type": "tuple[]"
        }
      ],
      "stateMutability": "view",
      "type": "function",
      "constant": true
    },
    {
      "inputs": [],
      "name": "getOwnedNfts",
      "outputs": [
        {
          "components": [
            {
              "internalType": "uint256",
              "name": "tokenId",
              "type": "uint256"
            },
            {
              "internalType": "uint256",
              "name": "price",
              "type": "uint256"
            },
            {
              "internalType": "address",
              "name": "creator",
              "type": "address"
            },
            {
              "internalType": "bool",
              "name": "isListed",
              "type": "bool"
            }
          ],
          "internalType": "struct NFTMarket.Asset[]",
          "name": "",
          "type": "tuple[]"
        }
      ],
      "stateMutability": "view",
      "type": "function",
      "constant": true
    },
    {
      "inputs": [
        {
          "internalType": "uint256",
          "name": "tokenId",
          "type": "uint256"
        }
      ],
      "name": "buyNft",
      "outputs": [],
      "stateMutability": "payable",
      "type": "function",
      "payable": true
    },
    {
      "inputs": [
        {
          "internalType": "uint256",
          "name": "tokenId",
          "type": "uint256"
        },
        {
          "internalType": "uint256",
          "name": "newPrice",
          "type": "uint256"
        }
      ],
      "name": "placeNftOnSale",
      "outputs": [],
      "stateMutability": "payable",
      "type": "function",
      "payable": true
    }
  ],
  "bytecode": "0x60806040526658d15e17628000600f553480156200001c57600080fd5b506040518060400160405280600b81526020017f52617374724173736574730000000000000000000000000000000000000000008152506040518060400160405280600581526020017f524153545200000000000000000000000000000000000000000000000000000081525081600090816200009a91906200032f565b508060019081620000ac91906200032f565b50505062000416565b600081519050919050565b7f4e487b7100000000000000000000000000000000000000000000000000000000600052604160045260246000fd5b7f4e487b7100000000000000000000000000000000000000000000000000000000600052602260045260246000fd5b600060028204905060018216806200013757607f821691505b6020821081036200014d576200014c620000ef565b5b50919050565b60008190508160005260206000209050919050565b60006020601f8301049050919050565b600082821b905092915050565b600060088302620001b77fffffffffffffffffffffffffffffffffffffffffffffffffffffffffffffffff8262000178565b620001c3868362000178565b95508019841693508086168417925050509392505050565b6000819050919050565b6000819050919050565b6000620002106200020a6200020484620001db565b620001e5565b620001db565b9050919050565b6000819050919050565b6200022c83620001ef565b620002446200023b8262000217565b84845462000185565b825550505050565b600090565b6200025b6200024c565b6200026881848462000221565b505050565b5b8181101562000290576200028460008262000251565b6001810190506200026e565b5050565b601f821115620002df57620002a98162000153565b620002b48462000168565b81016020851015620002c4578190505b620002dc620002d38562000168565b8301826200026d565b50505b505050565b600082821c905092915050565b60006200030460001984600802620002e4565b1980831691505092915050565b60006200031f8383620002f1565b9150826002028217905092915050565b6200033a82620000b5565b67ffffffffffffffff811115620003565762000355620000c0565b5b6200036282546200011e565b6200036f82828562000294565b600060209050601f831160018114620003a7576000841562000392578287015190505b6200039e858262000311565b8655506200040e565b601f198416620003b78662000153565b60005b82811015620003e157848901518255600182019150602085019450602081019050620003ba565b86831015620004015784890151620003fd601f891682620002f1565b8355505b6001600288020188555050505b505050505050565b61446080620004266000396000f3fe6080604052600436106101665760003560e01c80636352211e116100d1578063b88d4fde1161008a578063c87b56dd11610064578063c87b56dd14610539578063ccb4918d14610576578063e985e9c5146105a1578063eac8f5b8146105de57610166565b8063b88d4fde146104b5578063c046372c146104de578063c78f19f91461050e57610166565b80636352211e1461039357806370a08231146103d057806370cbcb431461040d5780637b47ec1a1461043857806395d89b4114610461578063a22cb4651461048c57610166565b806321f422e51161012357806321f422e51461028f57806323b872dd146102ab578063243adbdd146102d45780632f745c59146102f057806342842e0e1461032d5780634f6ccce71461035657610166565b806301ffc9a71461016b57806306fdde03146101a8578063081812fc146101d3578063095ea7b31461021057806315bc53ee1461023957806318160ddd14610264575b600080fd5b34801561017757600080fd5b50610192600480360381019061018d9190612bd9565b61061b565b60405161019f9190612c21565b60405180910390f35b3480156101b457600080fd5b506101bd6106fd565b6040516101ca9190612ccc565b60405180910390f35b3480156101df57600080fd5b506101fa60048036038101906101f59190612d24565b61078f565b6040516102079190612d92565b60405180910390f35b34801561021c57600080fd5b5061023760048036038101906102329190612dd9565b6107d5565b005b34801561024557600080fd5b5061024e6108ec565b60405161025b9190612f4a565b60405180910390f35b34801561027057600080fd5b50610279610a86565b6040516102869190612f7b565b60405180910390f35b6102a960048036038101906102a49190612f96565b610a93565b005b3480156102b757600080fd5b506102d260048036038101906102cd9190612fd6565b610c0f565b005b6102ee60048036038101906102e99190612d24565b610c6f565b005b3480156102fc57600080fd5b5061031760048036038101906103129190612dd9565b610e49565b6040516103249190612f7b565b60405180910390f35b34801561033957600080fd5b50610354600480360381019061034f9190612fd6565b610eee565b005b34801561036257600080fd5b5061037d60048036038101906103789190612d24565b610f0e565b60405161038a9190612f7b565b60405180910390f35b34801561039f57600080fd5b506103ba60048036038101906103b59190612d24565b610f7f565b6040516103c79190612d92565b60405180910390f35b3480156103dc57600080fd5b506103f760048036038101906103f29190613029565b611030565b6040516104049190612f7b565b60405180910390f35b34801561041957600080fd5b506104226110e7565b60405161042f9190612f4a565b60405180910390f35b34801561044457600080fd5b5061045f600480360381019061045a9190612d24565b61124b565b005b34801561046d57600080fd5b50610476611257565b6040516104839190612ccc565b60405180910390f35b34801561049857600080fd5b506104b360048036038101906104ae9190613082565b6112e9565b005b3480156104c157600080fd5b506104dc60048036038101906104d791906131f7565b6112ff565b005b6104f860048036038101906104f3919061331b565b611361565b6040516105059190612f7b565b60405180910390f35b34801561051a57600080fd5b50610523611596565b6040516105309190612f7b565b60405180910390f35b34801561054557600080fd5b50610560600480360381019061055b9190612d24565b61159c565b60405161056d9190612ccc565b60405180910390f35b34801561058257600080fd5b5061058b6116ae565b6040516105989190612f7b565b60405180910390f35b3480156105ad57600080fd5b506105c860048036038101906105c39190613377565b6116bf565b6040516105d59190612c21565b60405180910390f35b3480156105ea57600080fd5b5061060560048036038101906106009190612d24565b611753565b604051610612919061340c565b60405180910390f35b60007f80ac58cd000000000000000000000000000000000000000000000000000000007bffffffffffffffffffffffffffffffffffffffffffffffffffffffff1916827bffffffffffffffffffffffffffffffffffffffffffffffffffffffff191614806106e657507f5b5e139f000000000000000000000000000000000000000000000000000000007bffffffffffffffffffffffffffffffffffffffffffffffffffffffff1916827bffffffffffffffffffffffffffffffffffffffffffffffffffffffff1916145b806106f657506106f582611805565b5b9050919050565b60606000805461070c90613456565b80601f016020809104026020016040519081016040528092919081815260200182805461073890613456565b80156107855780601f1061075a57610100808354040283529160200191610785565b820191906000526020600020905b81548152906001019060200180831161076857829003601f168201915b5050505050905090565b600061079a8261186f565b6004600083815260200190815260200160002060009054906101000a900473ffffffffffffffffffffffffffffffffffffffff169050919050565b60006107e082610f7f565b90508073ffffffffffffffffffffffffffffffffffffffff168373ffffffffffffffffffffffffffffffffffffffff1603610850576040517f08c379a0000000000000000000000000000000000000000000000000000000008152600401610847906134f9565b60405180910390fd5b8073ffffffffffffffffffffffffffffffffffffffff1661086f6118ba565b73ffffffffffffffffffffffffffffffffffffffff16148061089e575061089d816108986118ba565b6116bf565b5b6108dd576040517f08c379a00000000000000000000000000000000000000000000000000000000081526004016108d49061358b565b60405180910390fd5b6108e783836118c2565b505050565b606060006108f8610a86565b9050600080610907600761197b565b67ffffffffffffffff8111156109205761091f6130cc565b5b60405190808252806020026020018201604052801561095957816020015b610946612ad0565b81526020019060019003908161093e5790505b50905060005b83811015610a7c57600061097282610f0e565b90506000600b60008381526020019081526020016000209050600115158160020160149054906101000a900460ff16151503610a67578060405180608001604052908160008201548152602001600182015481526020016002820160009054906101000a900473ffffffffffffffffffffffffffffffffffffffff1673ffffffffffffffffffffffffffffffffffffffff1673ffffffffffffffffffffffffffffffffffffffff1681526020016002820160149054906101000a900460ff161515151581525050848681518110610a4c57610a4b6135ab565b5b6020026020010181905250600185610a649190613609565b94505b50508080610a749061363d565b91505061095f565b5080935050505090565b6000600a80549050905090565b3373ffffffffffffffffffffffffffffffffffffffff16610ab383610f7f565b73ffffffffffffffffffffffffffffffffffffffff1614610b09576040517f08c379a0000000000000000000000000000000000000000000000000000000008152600401610b00906136d1565b60405180910390fd5b60001515600b600084815260200190815260200160002060020160149054906101000a900460ff16151514610b73576040517f08c379a0000000000000000000000000000000000000000000000000000000008152600401610b6a9061373d565b60405180910390fd5b600f543414610bb7576040517f08c379a0000000000000000000000000000000000000000000000000000000008152600401610bae906137cf565b60405180910390fd5b6001600b600084815260200190815260200160002060020160146101000a81548160ff02191690831515021790555080600b600084815260200190815260200160002060010181905550610c0b6007611989565b5050565b610c20610c1a6118ba565b8261199f565b610c5f576040517f08c379a0000000000000000000000000000000000000000000000000000000008152600401610c5690613861565b60405180910390fd5b610c6a838383611a34565b505050565b6000600b60008381526020019081526020016000206001015490506000610c9583610f7f565b9050600b600084815260200190815260200160002060020160009054906101000a900473ffffffffffffffffffffffffffffffffffffffff1673ffffffffffffffffffffffffffffffffffffffff163373ffffffffffffffffffffffffffffffffffffffff1603610d3b576040517f08c379a0000000000000000000000000000000000000000000000000000000008152600401610d32906138cd565b60405180910390fd5b813414610d7d576040517f08c379a0000000000000000000000000000000000000000000000000000000008152600401610d7490613939565b60405180910390fd5b6000600b600085815260200190815260200160002060020160146101000a81548160ff021916908315150217905550610db66007611c9a565b610dc1813385611a34565b8073ffffffffffffffffffffffffffffffffffffffff166108fc349081150290604051600060405180830381858888f19350505050158015610e07573d6000803e3d6000fd5b507f97b4be20e2ad5d3a4d68646b6ce6e1fb7cf986dae3e99c5bcdfeb4e3ab11cf6983336001604051610e3c93929190613959565b60405180910390a1505050565b6000610e5483611030565b8210610e95576040517f08c379a0000000000000000000000000000000000000000000000000000000008152600401610e8c906139dc565b60405180910390fd5b600d60008473ffffffffffffffffffffffffffffffffffffffff1673ffffffffffffffffffffffffffffffffffffffff168152602001908152602001600020600083815260200190815260200160002054905092915050565b610f09838383604051806020016040528060008152506112ff565b505050565b6000610f18610a86565b8210610f59576040517f08c379a0000000000000000000000000000000000000000000000000000000008152600401610f50906139dc565b60405180910390fd5b600a8281548110610f6d57610f6c6135ab565b5b90600052602060002001549050919050565b6000806002600084815260200190815260200160002060009054906101000a900473ffffffffffffffffffffffffffffffffffffffff169050600073ffffffffffffffffffffffffffffffffffffffff168173ffffffffffffffffffffffffffffffffffffffff1603611027576040517f08c379a000000000000000000000000000000000000000000000000000000000815260040161101e90613a48565b60405180910390fd5b80915050919050565b60008073ffffffffffffffffffffffffffffffffffffffff168273ffffffffffffffffffffffffffffffffffffffff16036110a0576040517f08c379a000000000000000000000000000000000000000000000000000000000815260040161109790613ada565b60405180910390fd5b600360008373ffffffffffffffffffffffffffffffffffffffff1673ffffffffffffffffffffffffffffffffffffffff168152602001908152602001600020549050919050565b606060006110f433611030565b905060008167ffffffffffffffff811115611112576111116130cc565b5b60405190808252806020026020018201604052801561114b57816020015b611138612ad0565b8152602001906001900390816111305790505b50905060005b828110156112425760006111653383610e49565b90506000600b600083815260200190815260200160002090508060405180608001604052908160008201548152602001600182015481526020016002820160009054906101000a900473ffffffffffffffffffffffffffffffffffffffff1673ffffffffffffffffffffffffffffffffffffffff1673ffffffffffffffffffffffffffffffffffffffff1681526020016002820160149054906101000a900460ff161515151581525050848481518110611222576112216135ab565b5b60200260200101819052505050808061123a9061363d565b915050611151565b50809250505090565b61125481611cf6565b50565b60606001805461126690613456565b80601f016020809104026020016040519081016040528092919081815260200182805461129290613456565b80156112df5780601f106112b4576101008083540402835291602001916112df565b820191906000526020600020905b8154815290600101906020018083116112c257829003601f168201915b5050505050905090565b6112fb6112f46118ba565b8383611d49565b5050565b61131061130a6118ba565b8361199f565b61134f576040517f08c379a000000000000000000000000000000000000000000000000000000000815260040161134690613861565b60405180910390fd5b61135b84848484611eb5565b50505050565b60008015156009846040516113769190613b36565b908152602001604051809103902060009054906101000a900460ff161515146113d4576040517f08c379a00000000000000000000000000000000000000000000000000000000081526004016113cb90613b99565b60405180910390fd5b600f543414611418576040517f08c379a000000000000000000000000000000000000000000000000000000000815260040161140f906137cf565b60405180910390fd5b6114226008611989565b61142c6007611989565b6000611438600861197b565b90506114443382611f11565b61144e8185611f2f565b60016009856040516114609190613b36565b908152602001604051809103902060006101000a81548160ff02191690831515021790555060405180608001604052808281526020018481526020013373ffffffffffffffffffffffffffffffffffffffff16815260200160011515815250600b6000838152602001908152602001600020600082015181600001556020820151816001015560408201518160020160006101000a81548173ffffffffffffffffffffffffffffffffffffffff021916908373ffffffffffffffffffffffffffffffffffffffff16021790555060608201518160020160146101000a81548160ff0219169083151502179055509050507f97b4be20e2ad5d3a4d68646b6ce6e1fb7cf986dae3e99c5bcdfeb4e3ab11cf698133600060405161158493929190613959565b60405180910390a18091505092915050565b600f5481565b60606115a78261186f565b60006006600084815260200190815260200160002080546115c790613456565b80601f01602080910402602001604051908101604052809291908181526020018280546115f390613456565b80156116405780601f1061161557610100808354040283529160200191611640565b820191906000526020600020905b81548152906001019060200180831161162357829003601f168201915b505050505090506000611651611f9c565b905060008151036116665781925050506116a9565b60008251111561169b578082604051602001611683929190613bb9565b604051602081830303815290604052925050506116a9565b6116a484611fb3565b925050505b919050565b60006116ba600761197b565b905090565b6000600560008473ffffffffffffffffffffffffffffffffffffffff1673ffffffffffffffffffffffffffffffffffffffff16815260200190815260200160002060008373ffffffffffffffffffffffffffffffffffffffff1673ffffffffffffffffffffffffffffffffffffffff16815260200190815260200160002060009054906101000a900460ff16905092915050565b61175b612ad0565b600b600083815260200190815260200160002060405180608001604052908160008201548152602001600182015481526020016002820160009054906101000a900473ffffffffffffffffffffffffffffffffffffffff1673ffffffffffffffffffffffffffffffffffffffff1673ffffffffffffffffffffffffffffffffffffffff1681526020016002820160149054906101000a900460ff1615151515815250509050919050565b60007f01ffc9a7000000000000000000000000000000000000000000000000000000007bffffffffffffffffffffffffffffffffffffffffffffffffffffffff1916827bffffffffffffffffffffffffffffffffffffffffffffffffffffffff1916149050919050565b6118788161201b565b6118b7576040517f08c379a00000000000000000000000000000000000000000000000000000000081526004016118ae90613a48565b60405180910390fd5b50565b600033905090565b816004600083815260200190815260200160002060006101000a81548173ffffffffffffffffffffffffffffffffffffffff021916908373ffffffffffffffffffffffffffffffffffffffff160217905550808273ffffffffffffffffffffffffffffffffffffffff1661193583610f7f565b73ffffffffffffffffffffffffffffffffffffffff167f8c5be1e5ebec7d5bd14f71427d1e84f3dd0314c0f7b2291e5b200ac8c7c3b92560405160405180910390a45050565b600081600001549050919050565b6001816000016000828254019250508190555050565b6000806119ab83610f7f565b90508073ffffffffffffffffffffffffffffffffffffffff168473ffffffffffffffffffffffffffffffffffffffff1614806119ed57506119ec81856116bf565b5b80611a2b57508373ffffffffffffffffffffffffffffffffffffffff16611a138461078f565b73ffffffffffffffffffffffffffffffffffffffff16145b91505092915050565b8273ffffffffffffffffffffffffffffffffffffffff16611a5482610f7f565b73ffffffffffffffffffffffffffffffffffffffff1614611aaa576040517f08c379a0000000000000000000000000000000000000000000000000000000008152600401611aa190613c4f565b60405180910390fd5b600073ffffffffffffffffffffffffffffffffffffffff168273ffffffffffffffffffffffffffffffffffffffff1603611b19576040517f08c379a0000000000000000000000000000000000000000000000000000000008152600401611b1090613ce1565b60405180910390fd5b611b24838383612087565b611b2f6000826118c2565b6001600360008573ffffffffffffffffffffffffffffffffffffffff1673ffffffffffffffffffffffffffffffffffffffff1681526020019081526020016000206000828254611b7f9190613d01565b925050819055506001600360008473ffffffffffffffffffffffffffffffffffffffff1673ffffffffffffffffffffffffffffffffffffffff1681526020019081526020016000206000828254611bd69190613609565b92505081905550816002600083815260200190815260200160002060006101000a81548173ffffffffffffffffffffffffffffffffffffffff021916908373ffffffffffffffffffffffffffffffffffffffff160217905550808273ffffffffffffffffffffffffffffffffffffffff168473ffffffffffffffffffffffffffffffffffffffff167fddf252ad1be2c89b69c2b068fc378daa952ba7f163c4a11628f55a4df523b3ef60405160405180910390a4611c9583838361246b565b505050565b60008160000154905060008111611ce6576040517f08c379a0000000000000000000000000000000000000000000000000000000008152600401611cdd90613d81565b60405180910390fd5b6001810382600001819055505050565b611cff81612470565b6000600660008381526020019081526020016000208054611d1f90613456565b905014611d4657600660008281526020019081526020016000206000611d459190612b10565b5b50565b8173ffffffffffffffffffffffffffffffffffffffff168373ffffffffffffffffffffffffffffffffffffffff1603611db7576040517f08c379a0000000000000000000000000000000000000000000000000000000008152600401611dae90613ded565b60405180910390fd5b80600560008573ffffffffffffffffffffffffffffffffffffffff1673ffffffffffffffffffffffffffffffffffffffff16815260200190815260200160002060008473ffffffffffffffffffffffffffffffffffffffff1673ffffffffffffffffffffffffffffffffffffffff16815260200190815260200160002060006101000a81548160ff0219169083151502179055508173ffffffffffffffffffffffffffffffffffffffff168373ffffffffffffffffffffffffffffffffffffffff167f17307eab39ab6107e8899845ad3d59bd9653f200f220920489ca2b5937696c3183604051611ea89190612c21565b60405180910390a3505050565b611ec0848484611a34565b611ecc8484848461258d565b611f0b576040517f08c379a0000000000000000000000000000000000000000000000000000000008152600401611f0290613e7f565b60405180910390fd5b50505050565b611f2b828260405180602001604052806000815250612714565b5050565b611f388261201b565b611f77576040517f08c379a0000000000000000000000000000000000000000000000000000000008152600401611f6e90613f11565b60405180910390fd5b80600660008481526020019081526020016000209081611f9791906140dd565b505050565b606060405180602001604052806000815250905090565b6060611fbe8261186f565b6000611fc8611f9c565b90506000815111611fe85760405180602001604052806000815250612013565b80611ff28461276f565b604051602001612003929190613bb9565b6040516020818303038152906040525b915050919050565b60008073ffffffffffffffffffffffffffffffffffffffff166002600084815260200190815260200160002060009054906101000a900473ffffffffffffffffffffffffffffffffffffffff1673ffffffffffffffffffffffffffffffffffffffff1614159050919050565b6120928383836128cf565b600073ffffffffffffffffffffffffffffffffffffffff168373ffffffffffffffffffffffffffffffffffffffff160361211157600a80549050600c600083815260200190815260200160002081905550600a8190806001815401808255809150506001900390600052602060002001600090919091909150556122af565b8173ffffffffffffffffffffffffffffffffffffffff168373ffffffffffffffffffffffffffffffffffffffff16146122ae576000600161215185611030565b61215b9190613d01565b90506000600e6000848152602001908152602001600020549050818114612240576000600d60008773ffffffffffffffffffffffffffffffffffffffff1673ffffffffffffffffffffffffffffffffffffffff168152602001908152602001600020600084815260200190815260200160002054905080600d60008873ffffffffffffffffffffffffffffffffffffffff1673ffffffffffffffffffffffffffffffffffffffff16815260200190815260200160002060008481526020019081526020016000208190555081600e600083815260200190815260200160002081905550505b600e600084815260200190815260200160002060009055600d60008673ffffffffffffffffffffffffffffffffffffffff1673ffffffffffffffffffffffffffffffffffffffff16815260200190815260200160002060008381526020019081526020016000206000905550505b5b600073ffffffffffffffffffffffffffffffffffffffff168273ffffffffffffffffffffffffffffffffffffffff16036123b65760006001600a805490506122f79190613d01565b90506000600c60008481526020019081526020016000205490506000600a8381548110612327576123266135ab565b5b9060005260206000200154905080600a8381548110612349576123486135ab565b5b906000526020600020018190555081600c600083815260200190815260200160002081905550600c600085815260200190815260200160002060009055600a805480612398576123976141af565b5b60019003818190600052602060002001600090559055505050612466565b8273ffffffffffffffffffffffffffffffffffffffff168273ffffffffffffffffffffffffffffffffffffffff16146124655760006123f483611030565b905081600d60008573ffffffffffffffffffffffffffffffffffffffff1673ffffffffffffffffffffffffffffffffffffffff16815260200190815260200160002060008381526020019081526020016000208190555080600e600084815260200190815260200160002081905550505b5b505050565b505050565b600061247b82610f7f565b905061248981600084612087565b6124946000836118c2565b6001600360008373ffffffffffffffffffffffffffffffffffffffff1673ffffffffffffffffffffffffffffffffffffffff16815260200190815260200160002060008282546124e49190613d01565b925050819055506002600083815260200190815260200160002060006101000a81549073ffffffffffffffffffffffffffffffffffffffff021916905581600073ffffffffffffffffffffffffffffffffffffffff168273ffffffffffffffffffffffffffffffffffffffff167fddf252ad1be2c89b69c2b068fc378daa952ba7f163c4a11628f55a4df523b3ef60405160405180910390a46125898160008461246b565b5050565b60006125ae8473ffffffffffffffffffffffffffffffffffffffff166128d4565b15612707578373ffffffffffffffffffffffffffffffffffffffff1663150b7a026125d76118ba565b8786866040518563ffffffff1660e01b81526004016125f99493929190614233565b6020604051808303816000875af192505050801561263557506040513d601f19601f820116820180604052508101906126329190614294565b60015b6126b7573d8060008114612665576040519150601f19603f3d011682016040523d82523d6000602084013e61266a565b606091505b5060008151036126af576040517f08c379a00000000000000000000000000000000000000000000000000000000081526004016126a690613e7f565b60405180910390fd5b805181602001fd5b63150b7a0260e01b7bffffffffffffffffffffffffffffffffffffffffffffffffffffffff1916817bffffffffffffffffffffffffffffffffffffffffffffffffffffffff19161491505061270c565b600190505b949350505050565b61271e83836128f7565b61272b600084848461258d565b61276a576040517f08c379a000000000000000000000000000000000000000000000000000000000815260040161276190613e7f565b60405180910390fd5b505050565b6060600082036127b6576040518060400160405280600181526020017f300000000000000000000000000000000000000000000000000000000000000081525090506128ca565b600082905060005b600082146127e85780806127d19061363d565b915050600a826127e191906142f0565b91506127be565b60008167ffffffffffffffff811115612804576128036130cc565b5b6040519080825280601f01601f1916602001820160405280156128365781602001600182028036833780820191505090505b5090505b600085146128c35760018261284f9190613d01565b9150600a8561285e9190614321565b603061286a9190613609565b60f81b8183815181106128805761287f6135ab565b5b60200101907effffffffffffffffffffffffffffffffffffffffffffffffffffffffffffff1916908160001a905350600a856128bc91906142f0565b945061283a565b8093505050505b919050565b505050565b6000808273ffffffffffffffffffffffffffffffffffffffff163b119050919050565b600073ffffffffffffffffffffffffffffffffffffffff168273ffffffffffffffffffffffffffffffffffffffff1603612966576040517f08c379a000000000000000000000000000000000000000000000000000000000815260040161295d9061439e565b60405180910390fd5b61296f8161201b565b156129af576040517f08c379a00000000000000000000000000000000000000000000000000000000081526004016129a69061440a565b60405180910390fd5b6129bb60008383612087565b6001600360008473ffffffffffffffffffffffffffffffffffffffff1673ffffffffffffffffffffffffffffffffffffffff1681526020019081526020016000206000828254612a0b9190613609565b92505081905550816002600083815260200190815260200160002060006101000a81548173ffffffffffffffffffffffffffffffffffffffff021916908373ffffffffffffffffffffffffffffffffffffffff160217905550808273ffffffffffffffffffffffffffffffffffffffff16600073ffffffffffffffffffffffffffffffffffffffff167fddf252ad1be2c89b69c2b068fc378daa952ba7f163c4a11628f55a4df523b3ef60405160405180910390a4612acc6000838361246b565b5050565b60405180608001604052806000815260200160008152602001600073ffffffffffffffffffffffffffffffffffffffff1681526020016000151581525090565b508054612b1c90613456565b6000825580601f10612b2e5750612b4d565b601f016020900490600052602060002090810190612b4c9190612b50565b5b50565b5b80821115612b69576000816000905550600101612b51565b5090565b6000604051905090565b600080fd5b600080fd5b60007fffffffff0000000000000000000000000000000000000000000000000000000082169050919050565b612bb681612b81565b8114612bc157600080fd5b50565b600081359050612bd381612bad565b92915050565b600060208284031215612bef57612bee612b77565b5b6000612bfd84828501612bc4565b91505092915050565b60008115159050919050565b612c1b81612c06565b82525050565b6000602082019050612c366000830184612c12565b92915050565b600081519050919050565b600082825260208201905092915050565b60005b83811015612c76578082015181840152602081019050612c5b565b60008484015250505050565b6000601f19601f8301169050919050565b6000612c9e82612c3c565b612ca88185612c47565b9350612cb8818560208601612c58565b612cc181612c82565b840191505092915050565b60006020820190508181036000830152612ce68184612c93565b905092915050565b6000819050919050565b612d0181612cee565b8114612d0c57600080fd5b50565b600081359050612d1e81612cf8565b92915050565b600060208284031215612d3a57612d39612b77565b5b6000612d4884828501612d0f565b91505092915050565b600073ffffffffffffffffffffffffffffffffffffffff82169050919050565b6000612d7c82612d51565b9050919050565b612d8c81612d71565b82525050565b6000602082019050612da76000830184612d83565b92915050565b612db681612d71565b8114612dc157600080fd5b50565b600081359050612dd381612dad565b92915050565b60008060408385031215612df057612def612b77565b5b6000612dfe85828601612dc4565b9250506020612e0f85828601612d0f565b9150509250929050565b600081519050919050565b600082825260208201905092915050565b6000819050602082019050919050565b612e4e81612cee565b82525050565b612e5d81612d71565b82525050565b612e6c81612c06565b82525050565b608082016000820151612e886000850182612e45565b506020820151612e9b6020850182612e45565b506040820151612eae6040850182612e54565b506060820151612ec16060850182612e63565b50505050565b6000612ed38383612e72565b60808301905092915050565b6000602082019050919050565b6000612ef782612e19565b612f018185612e24565b9350612f0c83612e35565b8060005b83811015612f3d578151612f248882612ec7565b9750612f2f83612edf565b925050600181019050612f10565b5085935050505092915050565b60006020820190508181036000830152612f648184612eec565b905092915050565b612f7581612cee565b82525050565b6000602082019050612f906000830184612f6c565b92915050565b60008060408385031215612fad57612fac612b77565b5b6000612fbb85828601612d0f565b9250506020612fcc85828601612d0f565b9150509250929050565b600080600060608486031215612fef57612fee612b77565b5b6000612ffd86828701612dc4565b935050602061300e86828701612dc4565b925050604061301f86828701612d0f565b9150509250925092565b60006020828403121561303f5761303e612b77565b5b600061304d84828501612dc4565b91505092915050565b61305f81612c06565b811461306a57600080fd5b50565b60008135905061307c81613056565b92915050565b6000806040838503121561309957613098612b77565b5b60006130a785828601612dc4565b92505060206130b88582860161306d565b9150509250929050565b600080fd5b600080fd5b7f4e487b7100000000000000000000000000000000000000000000000000000000600052604160045260246000fd5b61310482612c82565b810181811067ffffffffffffffff82111715613123576131226130cc565b5b80604052505050565b6000613136612b6d565b905061314282826130fb565b919050565b600067ffffffffffffffff821115613162576131616130cc565b5b61316b82612c82565b9050602081019050919050565b82818337600083830152505050565b600061319a61319584613147565b61312c565b9050828152602081018484840111156131b6576131b56130c7565b5b6131c1848285613178565b509392505050565b600082601f8301126131de576131dd6130c2565b5b81356131ee848260208601613187565b91505092915050565b6000806000806080858703121561321157613210612b77565b5b600061321f87828801612dc4565b945050602061323087828801612dc4565b935050604061324187828801612d0f565b925050606085013567ffffffffffffffff81111561326257613261612b7c565b5b61326e878288016131c9565b91505092959194509250565b600067ffffffffffffffff821115613295576132946130cc565b5b61329e82612c82565b9050602081019050919050565b60006132be6132b98461327a565b61312c565b9050828152602081018484840111156132da576132d96130c7565b5b6132e5848285613178565b509392505050565b600082601f830112613302576133016130c2565b5b81356133128482602086016132ab565b91505092915050565b6000806040838503121561333257613331612b77565b5b600083013567ffffffffffffffff8111156133505761334f612b7c565b5b61335c858286016132ed565b925050602061336d85828601612d0f565b9150509250929050565b6000806040838503121561338e5761338d612b77565b5b600061339c85828601612dc4565b92505060206133ad85828601612dc4565b9150509250929050565b6080820160008201516133cd6000850182612e45565b5060208201516133e06020850182612e45565b5060408201516133f36040850182612e54565b5060608201516134066060850182612e63565b50505050565b600060808201905061342160008301846133b7565b92915050565b7f4e487b7100000000000000000000000000000000000000000000000000000000600052602260045260246000fd5b6000600282049050600182168061346e57607f821691505b60208210810361348157613480613427565b5b50919050565b7f4552433732313a20617070726f76616c20746f2063757272656e74206f776e6560008201527f7200000000000000000000000000000000000000000000000000000000000000602082015250565b60006134e3602183612c47565b91506134ee82613487565b604082019050919050565b60006020820190508181036000830152613512816134d6565b9050919050565b7f4552433732313a20617070726f76652063616c6c6572206973206e6f7420746f60008201527f6b656e206f776e6572206e6f7220617070726f76656420666f7220616c6c0000602082015250565b6000613575603e83612c47565b915061358082613519565b604082019050919050565b600060208201905081810360008301526135a481613568565b9050919050565b7f4e487b7100000000000000000000000000000000000000000000000000000000600052603260045260246000fd5b7f4e487b7100000000000000000000000000000000000000000000000000000000600052601160045260246000fd5b600061361482612cee565b915061361f83612cee565b9250828201905080821115613637576136366135da565b5b92915050565b600061364882612cee565b91507fffffffffffffffffffffffffffffffffffffffffffffffffffffffffffffffff820361367a576136796135da565b5b600182019050919050565b7f596f7520617265206e6f74206f776e6572206f662074686973206e6674000000600082015250565b60006136bb601d83612c47565b91506136c682613685565b602082019050919050565b600060208201905081810360008301526136ea816136ae565b9050919050565b7f4974656d20697320616c7265616479206f6e2073616c65000000000000000000600082015250565b6000613727601783612c47565b9150613732826136f1565b602082019050919050565b600060208201905081810360008301526137568161371a565b9050919050565b7f5072696365206d75737420626520657175616c20746f206c697374696e67207060008201527f7269636500000000000000000000000000000000000000000000000000000000602082015250565b60006137b9602483612c47565b91506137c48261375d565b604082019050919050565b600060208201905081810360008301526137e8816137ac565b9050919050565b7f4552433732313a2063616c6c6572206973206e6f7420746f6b656e206f776e6560008201527f72206e6f7220617070726f766564000000000000000000000000000000000000602082015250565b600061384b602e83612c47565b9150613856826137ef565b604082019050919050565b6000602082019050818103600083015261387a8161383e565b9050919050565b7f596f7520616c7265616479206f776e2074686973204e46540000000000000000600082015250565b60006138b7601883612c47565b91506138c282613881565b602082019050919050565b600060208201905081810360008301526138e6816138aa565b9050919050565b7f506c65617365207375626d6974207468652061736b696e672070726963650000600082015250565b6000613923601e83612c47565b915061392e826138ed565b602082019050919050565b6000602082019050818103600083015261395281613916565b9050919050565b600060608201905061396e6000830186612f6c565b61397b6020830185612d83565b6139886040830184612c12565b949350505050565b7f496e646578206f7574206f6620626f756e647300000000000000000000000000600082015250565b60006139c6601383612c47565b91506139d182613990565b602082019050919050565b600060208201905081810360008301526139f5816139b9565b9050919050565b7f4552433732313a20696e76616c696420746f6b656e2049440000000000000000600082015250565b6000613a32601883612c47565b9150613a3d826139fc565b602082019050919050565b60006020820190508181036000830152613a6181613a25565b9050919050565b7f4552433732313a2061646472657373207a65726f206973206e6f74206120766160008201527f6c6964206f776e65720000000000000000000000000000000000000000000000602082015250565b6000613ac4602983612c47565b9150613acf82613a68565b604082019050919050565b60006020820190508181036000830152613af381613ab7565b9050919050565b600081905092915050565b6000613b1082612c3c565b613b1a8185613afa565b9350613b2a818560208601612c58565b80840191505092915050565b6000613b428284613b05565b915081905092915050565b7f546f6b656e2055524920616c7265616479206578697374730000000000000000600082015250565b6000613b83601883612c47565b9150613b8e82613b4d565b602082019050919050565b60006020820190508181036000830152613bb281613b76565b9050919050565b6000613bc58285613b05565b9150613bd18284613b05565b91508190509392505050565b7f4552433732313a207472616e736665722066726f6d20696e636f72726563742060008201527f6f776e6572000000000000000000000000000000000000000000000000000000602082015250565b6000613c39602583612c47565b9150613c4482613bdd565b604082019050919050565b60006020820190508181036000830152613c6881613c2c565b9050919050565b7f4552433732313a207472616e7366657220746f20746865207a65726f2061646460008201527f7265737300000000000000000000000000000000000000000000000000000000602082015250565b6000613ccb602483612c47565b9150613cd682613c6f565b604082019050919050565b60006020820190508181036000830152613cfa81613cbe565b9050919050565b6000613d0c82612cee565b9150613d1783612cee565b9250828203905081811115613d2f57613d2e6135da565b5b92915050565b7f436f756e7465723a2064656372656d656e74206f766572666c6f770000000000600082015250565b6000613d6b601b83612c47565b9150613d7682613d35565b602082019050919050565b60006020820190508181036000830152613d9a81613d5e565b9050919050565b7f4552433732313a20617070726f766520746f2063616c6c657200000000000000600082015250565b6000613dd7601983612c47565b9150613de282613da1565b602082019050919050565b60006020820190508181036000830152613e0681613dca565b9050919050565b7f4552433732313a207472616e7366657220746f206e6f6e20455243373231526560008201527f63656976657220696d706c656d656e7465720000000000000000000000000000602082015250565b6000613e69603283612c47565b9150613e7482613e0d565b604082019050919050565b60006020820190508181036000830152613e9881613e5c565b9050919050565b7f45524337323155524953746f726167653a2055524920736574206f66206e6f6e60008201527f6578697374656e7420746f6b656e000000000000000000000000000000000000602082015250565b6000613efb602e83612c47565b9150613f0682613e9f565b604082019050919050565b60006020820190508181036000830152613f2a81613eee565b9050919050565b60008190508160005260206000209050919050565b60006020601f8301049050919050565b600082821b905092915050565b600060088302613f937fffffffffffffffffffffffffffffffffffffffffffffffffffffffffffffffff82613f56565b613f9d8683613f56565b95508019841693508086168417925050509392505050565b6000819050919050565b6000613fda613fd5613fd084612cee565b613fb5565b612cee565b9050919050565b6000819050919050565b613ff483613fbf565b61400861400082613fe1565b848454613f63565b825550505050565b600090565b61401d614010565b614028818484613feb565b505050565b5b8181101561404c57614041600082614015565b60018101905061402e565b5050565b601f8211156140915761406281613f31565b61406b84613f46565b8101602085101561407a578190505b61408e61408685613f46565b83018261402d565b50505b505050565b600082821c905092915050565b60006140b460001984600802614096565b1980831691505092915050565b60006140cd83836140a3565b9150826002028217905092915050565b6140e682612c3c565b67ffffffffffffffff8111156140ff576140fe6130cc565b5b6141098254613456565b614114828285614050565b600060209050601f8311600181146141475760008415614135578287015190505b61413f85826140c1565b8655506141a7565b601f19841661415586613f31565b60005b8281101561417d57848901518255600182019150602085019450602081019050614158565b8683101561419a5784890151614196601f8916826140a3565b8355505b6001600288020188555050505b505050505050565b7f4e487b7100000000000000000000000000000000000000000000000000000000600052603160045260246000fd5b600081519050919050565b600082825260208201905092915050565b6000614205826141de565b61420f81856141e9565b935061421f818560208601612c58565b61422881612c82565b840191505092915050565b60006080820190506142486000830187612d83565b6142556020830186612d83565b6142626040830185612f6c565b818103606083015261427481846141fa565b905095945050505050565b60008151905061428e81612bad565b92915050565b6000602082840312156142aa576142a9612b77565b5b60006142b88482850161427f565b91505092915050565b7f4e487b7100000000000000000000000000000000000000000000000000000000600052601260045260246000fd5b60006142fb82612cee565b915061430683612cee565b925082614316576143156142c1565b5b828204905092915050565b600061432c82612cee565b915061433783612cee565b925082614347576143466142c1565b5b828206905092915050565b7f4552433732313a206d696e7420746f20746865207a65726f2061646472657373600082015250565b6000614388602083612c47565b915061439382614352565b602082019050919050565b600060208201905081810360008301526143b78161437b565b9050919050565b7f4552433732313a20746f6b656e20616c7265616479206d696e74656400000000600082015250565b60006143f4601c83612c47565b91506143ff826143be565b602082019050919050565b60006020820190508181036000830152614423816143e7565b905091905056fea2646970667358221220efc684eb974605809ab1e422ac5c507631994912edd1287747aeb8f564bd2f9864736f6c63430008100033",
  "immutableReferences": {},
  "source": "// SPDX-License-Identifier: MIT\r\npragma solidity >=0.4.22 <0.9.0;\r\n\r\nimport \"@openzeppelin/contracts/token/ERC721/extensions/ERC721URIStorage.sol\";\r\nimport \"@openzeppelin/contracts/utils/Counters.sol\";\r\n\r\ncontract NFTMarket is ERC721URIStorage {\r\n  using Counters for Counters.Counter;\r\n\r\n  struct Asset{\r\n    uint tokenId;\r\n    uint price;\r\n    address creator;\r\n    bool isListed;\r\n  }\r\n\r\n  Counters.Counter private _listedItems;\r\n  Counters.Counter private _tokenIds;\r\n\r\n  mapping(string => bool) private _usedTokenURIs;\r\n\r\n  uint256[] private _allAssetTokens;\r\n  mapping(uint => Asset) private _idToAsset;\r\n  mapping(uint => uint) private _idToAssetTokenIndex;\r\n\r\n  mapping(address => mapping(uint => uint)) private _ownedAssetTokens;\r\n  mapping(uint => uint) private _idToOwnedAssetTokenIndex;\r\n\r\n  uint public listingPrice = 0.025 ether;\r\n\r\n  event AssetRegistered(\r\n    uint tokenId,\r\n    address creator,\r\n    bool isListed\r\n  );\r\n\r\n  constructor() ERC721(\"RastrAssets\", \"RASTR\") {}\r\n\r\n  function mintToken(string memory tokenURI,uint price) external payable returns (uint) {\r\n    require(_usedTokenURIs[tokenURI]==false, \"Token URI already exists\");\r\n    require(msg.value == listingPrice, \"Price must be equal to listing price\");\r\n\r\n    _tokenIds.increment();\r\n    _listedItems.increment();\r\n    uint newTokenId = _tokenIds.current();\r\n    \r\n    _safeMint(msg.sender, newTokenId);\r\n    _setTokenURI(newTokenId, tokenURI);\r\n    _usedTokenURIs[tokenURI] = true;\r\n    _idToAsset[newTokenId] = Asset(\r\n      newTokenId,\r\n      price,\r\n      msg.sender,\r\n      true\r\n    );\r\n    emit AssetRegistered(newTokenId, msg.sender, false);\r\n    return newTokenId;\r\n  }\r\n\r\n  \r\n   function burnToken(uint tokenId) external {\r\n    _burn(tokenId);\r\n  }\r\n\r\n   function _beforeTokenTransfer(\r\n    address from,\r\n    address to,\r\n    uint tokenId\r\n  ) internal virtual override {\r\n\r\n    super._beforeTokenTransfer(from, to, tokenId);\r\n    // minting token\r\n    if (from == address(0)) {\r\n      // add token to all assetTokens enumeration\r\n      _idToAssetTokenIndex[tokenId] = _allAssetTokens.length;\r\n      _allAssetTokens.push(tokenId);\r\n    }else if (from != to) { // burn or transfer\r\n      // remove token  from specfic owner enumeration\r\n      uint lastTokenIndex = balanceOf(from) - 1;\r\n      uint tokenIndex = _idToOwnedAssetTokenIndex[tokenId];\r\n\r\n      if (tokenIndex != lastTokenIndex) {\r\n        uint lastTokenId = _ownedAssetTokens[from][lastTokenIndex];\r\n\r\n        _ownedAssetTokens[from][tokenIndex] = lastTokenId;\r\n        _idToOwnedAssetTokenIndex[lastTokenId] = tokenIndex;\r\n      }\r\n      delete _idToOwnedAssetTokenIndex[tokenId];\r\n      delete _ownedAssetTokens[from][lastTokenIndex];\r\n    }\r\n\r\n    //burn\r\n    if (to == address(0)) {\r\n      // remove token from all assetTokens enumeration\r\n      uint lastTokenIndex = _allAssetTokens.length - 1;\r\n      uint tokenIndex = _idToAssetTokenIndex[tokenId];\r\n      uint lastTokenId = _allAssetTokens[lastTokenIndex];\r\n\r\n      _allAssetTokens[tokenIndex] = lastTokenId;\r\n      _idToAssetTokenIndex[lastTokenId] = tokenIndex;\r\n\r\n      delete _idToAssetTokenIndex[tokenId];\r\n      _allAssetTokens.pop();\r\n    }\r\n    else if (to != from) { //mint or transfer\r\n      // add token to specfic owner enumeration\r\n      uint length = balanceOf(to);\r\n      _ownedAssetTokens[to][length] = tokenId;\r\n      _idToOwnedAssetTokenIndex[tokenId] = length;\r\n    }\r\n  }\r\n\r\n  function getAsset(uint tokenId) external view returns (Asset memory) {\r\n    return _idToAsset[tokenId];\r\n  }\r\n\r\n  function listedItemsCount() external view returns (uint) {\r\n    return _listedItems.current();\r\n  }\r\n\r\n  function totalSupply() public view returns (uint) {\r\n    return _allAssetTokens.length;\r\n  }\r\n\r\n  \r\n\r\n  function tokenByIndex(uint index) public view returns (uint) {\r\n    require(index < totalSupply(), \"Index out of bounds\");\r\n    return _allAssetTokens[index];\r\n  }\r\n\r\n  function tokenOfOwnerByIndex(address owner, uint index) public view returns (uint) {\r\n    require(index < balanceOf(owner), \"Index out of bounds\");\r\n    return _ownedAssetTokens[owner][index];\r\n  }\r\n\r\n  //To  fix if not listed then returning empty lists\r\n  function getAllAssetsOnSale() public view returns (Asset[] memory) {\r\n    uint allItemsCounts = totalSupply();\r\n    uint currentIndex = 0;\r\n    Asset[] memory items = new Asset[](_listedItems.current());\r\n\r\n    for (uint i = 0; i < allItemsCounts; i++) {\r\n      uint tokenId = tokenByIndex(i);\r\n      Asset storage item = _idToAsset[tokenId];\r\n\r\n      if (item.isListed == true) {\r\n        items[currentIndex] = item;\r\n        currentIndex += 1;\r\n      }\r\n    }\r\n    return items;\r\n  }\r\n\r\n  function getOwnedNfts() public view returns (Asset[] memory) {\r\n    uint ownedItemsCount = ERC721.balanceOf(msg.sender);\r\n    Asset[] memory items = new Asset[](ownedItemsCount);\r\n\r\n    for (uint i = 0; i < ownedItemsCount; i++) {\r\n      uint tokenId = tokenOfOwnerByIndex(msg.sender, i);\r\n      Asset storage item = _idToAsset[tokenId];\r\n      items[i] = item;\r\n    }\r\n\r\n    return items;\r\n  }\r\n\r\n  function buyNft(\r\n    uint tokenId\r\n  ) public payable {\r\n    uint price = _idToAsset[tokenId].price;\r\n    //address owner = IERC721(assetContract).ownerOf(tokenId);\r\n    address owner = ownerOf(tokenId);\r\n    require(msg.sender != _idToAsset[tokenId].creator, \"You already own this NFT\");\r\n    require(msg.value == price, \"Please submit the asking price\");\r\n\r\n    _idToAsset[tokenId].isListed = false;\r\n     _listedItems.decrement();\r\n\r\n    _transfer(owner, msg.sender, tokenId);\r\n    payable(owner).transfer(msg.value);\r\n    emit AssetRegistered(tokenId, msg.sender, true);\r\n  }\r\n\r\n    function placeNftOnSale(uint tokenId, uint newPrice) public payable {\r\n\r\n    require(ERC721.ownerOf(tokenId) == msg.sender, \"You are not owner of this nft\");\r\n    \r\n    require(_idToAsset[tokenId].isListed == false, \"Item is already on sale\");\r\n    require(msg.value == listingPrice, \"Price must be equal to listing price\");\r\n\r\n    _idToAsset[tokenId].isListed = true;\r\n    _idToAsset[tokenId].price = newPrice;\r\n    _listedItems.increment();\r\n  }\r\n\r\n\r\n}",
  "sourcePath": "C:\\Users\\ADFIN.DESKTOP-6U0JPI0\\Desktop\\UDEMY\\bc\\nft-marketplace\\contracts\\NFTMarket.sol",
  "compiler": {
    "name": "solc",
    "version": "0.8.16+commit.07a7930e.Emscripten.clang"
  },
  "schemaVersion": "3.4.9",
  "updatedAt": "2022-08-26T14:51:41.473Z",
  "networkType": "ethereum",
  "devdoc": {
    "kind": "dev",
    "methods": {
      "approve(address,uint256)": {
        "details": "See {IERC721-approve}."
      },
      "balanceOf(address)": {
        "details": "See {IERC721-balanceOf}."
      },
      "getApproved(uint256)": {
        "details": "See {IERC721-getApproved}."
      },
      "isApprovedForAll(address,address)": {
        "details": "See {IERC721-isApprovedForAll}."
      },
      "name()": {
        "details": "See {IERC721Metadata-name}."
      },
      "ownerOf(uint256)": {
        "details": "See {IERC721-ownerOf}."
      },
      "safeTransferFrom(address,address,uint256)": {
        "details": "See {IERC721-safeTransferFrom}."
      },
      "safeTransferFrom(address,address,uint256,bytes)": {
        "details": "See {IERC721-safeTransferFrom}."
      },
      "setApprovalForAll(address,bool)": {
        "details": "See {IERC721-setApprovalForAll}."
      },
      "supportsInterface(bytes4)": {
        "details": "See {IERC165-supportsInterface}."
      },
      "symbol()": {
        "details": "See {IERC721Metadata-symbol}."
      },
      "tokenURI(uint256)": {
        "details": "See {IERC721Metadata-tokenURI}."
      },
      "transferFrom(address,address,uint256)": {
        "details": "See {IERC721-transferFrom}."
      }
    },
    "version": 1
  },
  "userdoc": {
    "kind": "user",
    "methods": {},
    "version": 1
  }
}