{
  "contractName": "RastrSalesMarketplace",
  "abi": [
    {
      "inputs": [],
      "stateMutability": "nonpayable",
      "type": "constructor"
    },
    {
      "anonymous": false,
      "inputs": [
        {
          "indexed": false,
          "internalType": "uint256",
          "name": "tokenId",
          "type": "uint256"
        },
        {
          "indexed": false,
          "internalType": "uint256",
          "name": "price",
          "type": "uint256"
        },
        {
          "indexed": false,
          "internalType": "address",
          "name": "creator",
          "type": "address"
        },
        {
          "indexed": false,
          "internalType": "bool",
          "name": "isListed",
          "type": "bool"
        }
      ],
      "name": "NftItemCreated",
      "type": "event"
    },
    {
      "anonymous": false,
      "inputs": [
        {
          "indexed": true,
          "internalType": "address",
          "name": "previousOwner",
          "type": "address"
        },
        {
          "indexed": true,
          "internalType": "address",
          "name": "newOwner",
          "type": "address"
        }
      ],
      "name": "OwnershipTransferred",
      "type": "event"
    },
    {
      "inputs": [],
      "name": "owner",
      "outputs": [
        {
          "internalType": "address",
          "name": "",
          "type": "address"
        }
      ],
      "stateMutability": "view",
      "type": "function",
      "constant": true
    },
    {
      "inputs": [],
      "name": "renounceOwnership",
      "outputs": [],
      "stateMutability": "nonpayable",
      "type": "function"
    },
    {
      "inputs": [
        {
          "internalType": "address",
          "name": "newOwner",
          "type": "address"
        }
      ],
      "name": "transferOwnership",
      "outputs": [],
      "stateMutability": "nonpayable",
      "type": "function"
    },
    {
      "inputs": [
        {
          "internalType": "address",
          "name": "assetContract",
          "type": "address"
        },
        {
          "internalType": "uint256",
          "name": "tokenId",
          "type": "uint256"
        },
        {
          "internalType": "uint256",
          "name": "newPrice",
          "type": "uint256"
        }
      ],
      "name": "placeNftOnSale",
      "outputs": [],
      "stateMutability": "payable",
      "type": "function",
      "payable": true
    },
    {
      "inputs": [
        {
          "internalType": "address",
          "name": "assetContract",
          "type": "address"
        },
        {
          "internalType": "uint256",
          "name": "tokenId",
          "type": "uint256"
        }
      ],
      "name": "buyNft",
      "outputs": [],
      "stateMutability": "payable",
      "type": "function",
      "payable": true
    },
    {
      "inputs": [
        {
          "internalType": "uint256",
          "name": "newPrice",
          "type": "uint256"
        }
      ],
      "name": "setListingPrice",
      "outputs": [],
      "stateMutability": "nonpayable",
      "type": "function"
    }
  ],
  "bytecode": "0x608060405234801561001057600080fd5b5061002d61002261003260201b60201c565b61003a60201b60201c565b6100fe565b600033905090565b60008060009054906101000a900473ffffffffffffffffffffffffffffffffffffffff169050816000806101000a81548173ffffffffffffffffffffffffffffffffffffffff021916908373ffffffffffffffffffffffffffffffffffffffff1602179055508173ffffffffffffffffffffffffffffffffffffffff168173ffffffffffffffffffffffffffffffffffffffff167f8be0079c531659141344cd1fd0a4f28419497f9722a3daafe3b4186f6b6457e060405160405180910390a35050565b610a008061010d6000396000f3fe6080604052600436106100555760003560e01c80634ddf4f8f1461005a578063715018a6146100765780637c726b691461008d578063893d00ed146100b65780638da5cb5b146100d2578063f2fde38b146100fd575b600080fd5b610074600480360381019061006f91906105f4565b610126565b005b34801561008257600080fd5b5061008b610217565b005b34801561009957600080fd5b506100b460048036038101906100af9190610634565b61022b565b005b6100d060048036038101906100cb9190610661565b610279565b005b3480156100de57600080fd5b506100e7610365565b6040516100f491906106c3565b60405180910390f35b34801561010957600080fd5b50610124600480360381019061011f91906106de565b61038e565b005b60008273ffffffffffffffffffffffffffffffffffffffff16636352211e836040518263ffffffff1660e01b8152600401610161919061071a565b602060405180830381865afa15801561017e573d6000803e3d6000fd5b505050506040513d601f19601f820116820180604052508101906101a2919061074a565b90508073ffffffffffffffffffffffffffffffffffffffff163373ffffffffffffffffffffffffffffffffffffffff1603610212576040517f08c379a0000000000000000000000000000000000000000000000000000000008152600401610209906107d4565b60405180910390fd5b505050565b61021f610411565b610229600061048f565b565b610233610411565b60008111610276576040517f08c379a000000000000000000000000000000000000000000000000000000000815260040161026d90610840565b60405180910390fd5b50565b3373ffffffffffffffffffffffffffffffffffffffff168373ffffffffffffffffffffffffffffffffffffffff16636352211e846040518263ffffffff1660e01b81526004016102c9919061071a565b602060405180830381865afa1580156102e6573d6000803e3d6000fd5b505050506040513d601f19601f8201168201806040525081019061030a919061074a565b73ffffffffffffffffffffffffffffffffffffffff1614610360576040517f08c379a0000000000000000000000000000000000000000000000000000000008152600401610357906108ac565b60405180910390fd5b505050565b60008060009054906101000a900473ffffffffffffffffffffffffffffffffffffffff16905090565b610396610411565b600073ffffffffffffffffffffffffffffffffffffffff168173ffffffffffffffffffffffffffffffffffffffff1603610405576040517f08c379a00000000000000000000000000000000000000000000000000000000081526004016103fc9061093e565b60405180910390fd5b61040e8161048f565b50565b610419610553565b73ffffffffffffffffffffffffffffffffffffffff16610437610365565b73ffffffffffffffffffffffffffffffffffffffff161461048d576040517f08c379a0000000000000000000000000000000000000000000000000000000008152600401610484906109aa565b60405180910390fd5b565b60008060009054906101000a900473ffffffffffffffffffffffffffffffffffffffff169050816000806101000a81548173ffffffffffffffffffffffffffffffffffffffff021916908373ffffffffffffffffffffffffffffffffffffffff1602179055508173ffffffffffffffffffffffffffffffffffffffff168173ffffffffffffffffffffffffffffffffffffffff167f8be0079c531659141344cd1fd0a4f28419497f9722a3daafe3b4186f6b6457e060405160405180910390a35050565b600033905090565b600080fd5b600073ffffffffffffffffffffffffffffffffffffffff82169050919050565b600061058b82610560565b9050919050565b61059b81610580565b81146105a657600080fd5b50565b6000813590506105b881610592565b92915050565b6000819050919050565b6105d1816105be565b81146105dc57600080fd5b50565b6000813590506105ee816105c8565b92915050565b6000806040838503121561060b5761060a61055b565b5b6000610619858286016105a9565b925050602061062a858286016105df565b9150509250929050565b60006020828403121561064a5761064961055b565b5b6000610658848285016105df565b91505092915050565b60008060006060848603121561067a5761067961055b565b5b6000610688868287016105a9565b9350506020610699868287016105df565b92505060406106aa868287016105df565b9150509250925092565b6106bd81610580565b82525050565b60006020820190506106d860008301846106b4565b92915050565b6000602082840312156106f4576106f361055b565b5b6000610702848285016105a9565b91505092915050565b610714816105be565b82525050565b600060208201905061072f600083018461070b565b92915050565b60008151905061074481610592565b92915050565b6000602082840312156107605761075f61055b565b5b600061076e84828501610735565b91505092915050565b600082825260208201905092915050565b7f596f7520616c7265616479206f776e2074686973204e46540000000000000000600082015250565b60006107be601883610777565b91506107c982610788565b602082019050919050565b600060208201905081810360008301526107ed816107b1565b9050919050565b7f5072696365206d757374206265206174206c6561737420312077656900000000600082015250565b600061082a601c83610777565b9150610835826107f4565b602082019050919050565b600060208201905081810360008301526108598161081d565b9050919050565b7f596f7520617265206e6f74206f776e6572206f662074686973206e6674000000600082015250565b6000610896601d83610777565b91506108a182610860565b602082019050919050565b600060208201905081810360008301526108c581610889565b9050919050565b7f4f776e61626c653a206e6577206f776e657220697320746865207a65726f206160008201527f6464726573730000000000000000000000000000000000000000000000000000602082015250565b6000610928602683610777565b9150610933826108cc565b604082019050919050565b600060208201905081810360008301526109578161091b565b9050919050565b7f4f776e61626c653a2063616c6c6572206973206e6f7420746865206f776e6572600082015250565b6000610994602083610777565b915061099f8261095e565b602082019050919050565b600060208201905081810360008301526109c381610987565b905091905056fea2646970667358221220d51373a4b62bab804613a262c6fb8cd52b7064cd63b6581b585743a1330277d864736f6c63430008100033",
  "immutableReferences": {},
  "source": "// SPDX-License-Identifier: MIT\r\npragma solidity >=0.4.22 <0.9.0;\r\n\r\nimport \"@openzeppelin/contracts/token/ERC721/IERC721.sol\";\r\nimport \"@openzeppelin/contracts/utils/Counters.sol\";\r\nimport \"@openzeppelin/contracts/access/Ownable.sol\";\r\n\r\ncontract RastrSalesMarketplace is Ownable {\r\n  using Counters for Counters.Counter;\r\n\r\n  struct NftItem {\r\n    uint tokenId;\r\n    uint price;\r\n    address creator;\r\n    bool isListed;\r\n  }\r\n\r\n  event NftItemCreated (\r\n    uint tokenId,\r\n    uint price,\r\n    address creator,\r\n    bool isListed\r\n  );\r\n\r\n  constructor() {}\r\n\r\n function placeNftOnSale(\r\n  address assetContract, \r\n  uint tokenId, \r\n  uint newPrice\r\n  ) public payable {\r\n    require(IERC721(assetContract).ownerOf(tokenId) == msg.sender, \"You are not owner of this nft\");\r\n    //require(_idToNftItem[tokenId].isListed == false, \"Item is already on sale\");\r\n    //require(msg.value == listingPrice, \"Price must be equal to listing price\");\r\n\r\n    //_idToNftItem[tokenId].isListed = true;\r\n    //_idToNftItem[tokenId].price = newPrice;\r\n    //_listedItems.increment();\r\n  }\r\n\r\n  function buyNft(\r\n    address assetContract, \r\n    uint tokenId\r\n  ) public payable {\r\n    //uint price = _idToNftItem[tokenId].price;\r\n    address owner = IERC721(assetContract).ownerOf(tokenId);\r\n\r\n    require(msg.sender != owner, \"You already own this NFT\");\r\n    //require(msg.value == price, \"Please submit the asking price\");\r\n\r\n    //_idToNftItem[tokenId].isListed = false;\r\n    //_listedItems.decrement();\r\n\r\n    //_transfer(owner, msg.sender, tokenId);\r\n    //payable(owner).transfer(msg.value);\r\n    //emit NftItemCreated(tokenId, price, msg.sender, true);\r\n  }\r\n\r\n  function setListingPrice(uint newPrice) external onlyOwner {\r\n    require(newPrice > 0, \"Price must be at least 1 wei\");\r\n    //listingPrice = newPrice;\r\n  }\r\n\r\n  \r\n\r\n}",
  "sourcePath": "C:\\Users\\ADFIN.DESKTOP-6U0JPI0\\Desktop\\UDEMY\\bc\\nft-marketplace\\contracts\\RastrSalesMarketplace.sol",
  "compiler": {
    "name": "solc",
    "version": "0.8.16+commit.07a7930e.Emscripten.clang"
  },
  "schemaVersion": "3.4.9",
  "updatedAt": "2022-08-26T14:51:48.840Z",
  "networkType": "ethereum",
  "devdoc": {
    "kind": "dev",
    "methods": {
      "owner()": {
        "details": "Returns the address of the current owner."
      },
      "renounceOwnership()": {
        "details": "Leaves the contract without owner. It will not be possible to call `onlyOwner` functions anymore. Can only be called by the current owner. NOTE: Renouncing ownership will leave the contract without an owner, thereby removing any functionality that is only available to the owner."
      },
      "transferOwnership(address)": {
        "details": "Transfers ownership of the contract to a new account (`newOwner`). Can only be called by the current owner."
      }
    },
    "version": 1
  },
  "userdoc": {
    "kind": "user",
    "methods": {},
    "version": 1
  }
}